:020000040000FA
:100000000C943C1A0C94463D0C941B3D0C94F03C13
:100010000C94C53C0C949A3C0C946F3C0C94443C5E
:100020000C94193C0C946D1A0C946D1A0C946D1A66
:100030000C946D1A0C946D1A0C946D1A0C946D1A24
:100040000C946D1A0C946D1A0C946D1A0C946D1A14
:100050000C946D1A0C946D1A0C946D1A0C94CF3B81
:100060000C946D1A0C949B3D0C94713D0C946D1A7C
:100070000C946D1A0C946D1A0C946D1A0C946D1AE4
:100080000C946D1A0C946D1A0C946D1A0C946D1AD4
:100090000C946D1A0C946D1A0C946D1A0C94D13D3D
:1000A0000C946D1A0C946D1A0C94F53E0C946D1A08
:1000B0000C946D1A0C946D1A0C946D1A0C946D1AA4
:1000C0000C946D1A0C946D1A0C946D1A0C946D1A94
:1000D0000C946D1A0C946D1A0C946D1A0C946D1A84
:1000E0000C946D1A0C94591C0C94201F0C94571CE2
:1000F0000C94A01A0C94FA240C941B240C94D71E74
:100100000C947C4D0C94644E0C9404490C94224F36
:100110000C94C1260C94DA4D0C9455220C94B91C05
:100120000C9453490C941B200C94DC1C0C943D49FA
:100130000C94702E0C94941A0C9434400C94D22489
:100140000C94EA260C94E2240C94B04E0C94A31A5E
:100150000C94581C0C94C4490C941F2D0C94EA1C4C
:100160000C944C490C94D0260C94A91A0C94981A0F
:100170000C94C11A0C94671F0C94E3260C94221D56
:100180000C94C81C0C948E1A0C941E4D0C94EE24E6
:100190000C944C4E0C9486230C940A400C94D84A30
:1001A0000C948A4E0C944D4D0C94AD1A0C94202D49
:1001B0000C946F1A0C94A7490C94FE230C94094ECE
:1001C0000C94BB1A0C94BD490C94B6490C948C1C2D
:1001D0000C94BA350C94CE1A0C946F1D0C942723F2
:1001E0000C949C1A0C94D64E0C94AB4D0C94384E37
:1001F0000C948C490C9479250C94C51A0C94D31A40
:100200000C940A490C944D2C0C94C91A0C94484F28
:100210000C94B71A0C94B31A0C94CF1A0C94172799
:100220000C94FC4E0C94B4356364696E6F707375F6
:1002300078585B00000000000900000000080A096F
:1002400000F30A00080A0900F3140007080900F582
:100250001B0007070900F5220008090900F42B001C
:1002600008090900F4340004040902F73600080FF5
:100270000900F2450006060901F64A00080F0900C8
:10028000F25900070A0900F36200060A0901F36A3D
:1002900000080A0900F37400080B0900F37F000846
:1002A000090900F48800070B0900F29200070B0906
:1002B00000F29C0006090901F3A300060A0901F3F4
:1002C000AB00080A0900F3B500070C0900F2C000F2
:1002D00007040900F9C400060A0901F3CC00060A64
:1002E0000901F3D400060A0901F3DC00070509003F
:1002F000F6E10007050900F6E60007040900F7EA41
:100300000008050900F6EF0007070900F5F60007E9
:10031000070900F5FD000000090000FD00040A09BE
:1003200002F3020106040901F2050107090900F4BC
:100330000D01070D0900F2190107080900F5200158
:10034000070A0900F3290103040901F22B01040A39
:100350000902F33001040A0902F335010805090016
:10036000F63A0106050901F63E0103040902FA40C6
:100370000107010900F8410102020903FB420107DC
:10038000080900F54901080A0900F35301060A09A2
:1003900001F35B01070A0900F36401070A0900F38E
:1003A0006D01070A0900F37601070A0900F37F01CE
:1003B000070A0900F38801070A0900F39101070AF7
:1003C0000900F39A01070A0900F3A30102070903D0
:1003D000F5A50103080902F5A80106090901F4AF12
:1003E0000106040901F6B20106090901F4B9010781
:1003F0000A0900F3C20107090900F4CA01070A0942
:1004000000F3D301070A0900F3DC01070A0900F32E
:10041000E501070A0900F3EE01070A0900F3F701F5
:10042000070A0900F30002070A0900F30902070A94
:100430000900F31202040A0902F31702070A09006D
:10044000F32002070A0900F32902070A0900F33220
:1004500002080A0900F33C02070A0900F3450207F3
:100460000A0900F34E02070A0900F35702070C09B4
:1004700000F36202070A0900F36B02070A0900F39E
:100480007402080A0900F37E02070A0900F38702D2
:10049000080A0900F39102080A0900F39B02080AFE
:1004A0000900F3A502080A0900F3AF02080A0900CF
:1004B000F3B902040A0902F3BE0207090900F4C6EF
:1004C00002040A0902F3CB0207030900F2CE020874
:1004D000010900FECF0203020902F2D00207070958
:1004E00000F6D702070A0900F3E00207070900F641
:1004F000E702070A0900F3F00207070900F6F7020E
:10050000060A0900F3FF02070A0900F60803070AB2
:100510000900F31103040A0902F31603060D090189
:10052000F32003070A0900F32903040A0902F32E42
:100530000308070900F6350307070900F63C03071F
:10054000070900F64303070A0900F64C03070A09E6
:1005500000F6550307070900F65C0307070900F6D4
:100560006303070A0900F36C0307070900F6730326
:1005700008070900F67A0308070900F6810308074F
:100580000900F68803070A0900F691030707090026
:10059000F69803060A0901F3A003020A0903F3A36C
:1005A00003060A0901F3AB0307020900F3AD0307D1
:1005B000070900F5B403070C0900F3BF03070A0994
:1005C00000F3C803070B0900F2D203070B0900F27E
:1005D000DC03070A0900F3E503070B0900F2EF0348
:1005E000070B0900F2F90306090901F50004070BDE
:1005F0000900F20A04070A0900F31304070B0900B3
:10060000F21D04060A0901F32504060B0901F22E66
:1006100004050B0901F23504070B0900F23F04073A
:100620000B0900F24904070B0900F25304080709FB
:1006300000F65A04070A0900F36304070B0900F2E5
:100640006D04070A0900F37604070B0900F2800421
:10065000070B0900F28A04070B0900F29404070D46
:100660000900F3A004070B0900F2AA04070B090014
:10067000F2B404080B0900F2BF04070B0900F2C929
:1006800004080A0900F3D304080B0900F2DE040889
:100690000D0900F2EB04070B0900F2F504040B0945
:1006A00002F2FB04070B0900F20505070B0900F233
:1006B0000F05070A0900F31805070B0900F22205C8
:1006C00006060901F2270505060901F22B05070AAE
:1006D0000900F3340507050900F739050705090086
:1006E000F73E05080D0900F24B05070D0900F2570A
:1006F00005040A0902F35C0507050900F661050710
:10070000050900F66605070F0901F27405080F09CF
:1007100000F28305080F0900F29205020F0903F2A7
:100720009605050F0900F2A005050F0900F2AA05BC
:10073000070F0900F2B80507090900F8C005050B05
:100740000900F6C705070F0900F2D505050F0902D4
:10075000F2DF05070B0900F6E90507070900F2F0CB
:100760000507070900F2F70505070900F2FC050572
:10077000090900F8020606070903F2080609070935
:1007800000F2100609090900F81B06060F0903F21A
:10079000270609010900F82906090F0900F23A069F
:1007A000060F0903F24606070F0902F2540607076F
:1007B0000902F25B06070B0902F665060907090044
:1007C000F26D06090B0900F67A06070F0902F28896
:1007D0000609030900F68C06090F0900F29D0609B7
:1007E000070900F2A50609070900F2AD06090B0981
:1007F00000F6BA0609090900F8C50607070902F25A
:10080000CC0606070903F2D206060B0903F6DB063F
:1008100007090902F8E306090F0900F2F406090FB7
:100820000900F2050705070900F20A07060909038E
:10083000F81107090F0900F2220709090900F82D2C
:1008400007040F0900F23507050F0904F23F0709F5
:10085000060900F2460707070900F64D07070A09CF
:1008600000F35607070A0900F35F0707080900F5B8
:10087000660707090900F46E0707070900F6750700
:1008800007090900F57D0707080900F5840706092F
:100890000901F48B0707090900F49307070A090007
:1008A000F39C07060A0901F3A40708050900F6A945
:1008B0000708090900F4B207050A0901F3B9070797
:1008C000090900F4C10707070900F5C80708080966
:1008D00000F5D00706090901F4D70706090901F454
:1008E000DE07050E0903F3E707050B0900F2EE0723
:1008F00006070901F5F40707050900F6F9070504DD
:100900000901F2FC0702020903F8FD0702010903CD
:10091000F9FE07080B0900F2090806060900F20EA5
:100920000805060900F2120805070901F57E81A5F0
:100930008181BD9981817E7EFFDBFFFFC3E7FFFFE1
:100940007E6DFFFFFFEF8E081071F7F7C7040018E8
:100950003C3CE7E7E718183C183C7EFFFF7E181880
:100960003C6FF6FFFFFFFFFFE7C3C3E7FFFFFFFF9B
:10097000FFFF7B3861CDE0FFFFFFFFC399BDBD994D
:10098000C3FFFFFFFFFF1E1C699799B366CCF07B86
:100990003CF3CDE33F30C03F333F3030303070F078
:1009A000E07F637F6363636367E7E6C01818DB3C3F
:1009B000E73CDB18188183878F9FFE78E182000275
:1009C0000C38F3FFCF8F0E0C0831EFCC30CFDE3078
:1009D000CF3CF3CF3CC0CF307FDBDBDB7B1B1B1B73
:1009E0001B1B7D8D81C6D8F1B6381B1BE0FFFFFFB6
:1009F000F031EFCC30CFDE33F031EFCC30C30C3000
:100A0000C030C30C30C33F78C0181BF8618030C3BE
:100A1000FB0300C18307F02466FF66241070E3E740
:100A2000DFFF80FFFDF3E38704006FFF666066CFA2
:100A30003CD26CDBFB66CDBFB66C18FB1E1C0F8175
:100A400083878DF0C180C38C30C30C31C338D9B1DA
:100A5000C77BB366CCEC6DE036CCCCCC63C633330D
:100A6000336C663CFF3C6630CFCC306DE0FEF0026C
:100A70000C30C30C30403C66C3C3DBDBC3C3663CF5
:100A800031CF0C30C30C33F07D8C1861861860C7F1
:100A9000FC7D8C1833C0C183C6F80C38F36CDFC3FF
:100AA000060C3CFF83060FC0C183C6F838C3060F8F
:100AB000D8F1E3C6F8FF8C1830C30C1830607D8F76
:100AC0001E37D8F1E3C6F87D8F1E37E0C1830CF0E6
:100AD000F03C6C00DE0C6318C183060CFC003FC1C7
:100AE00083060C6318C07D8F186183060018307D63
:100AF0008F1EFDFBF7607C1071B63C7FF1E3C78C65
:100B0000FCCD9B37CCD9B367F83CCF0E0C183061C5
:100B10006678F8D99B366CD9B36DF0FECD8B478DD6
:100B2000183167FCFECD8B478D183061E03CCF0E4D
:100B30000C1BF1E36674C78F1E3FF8F1E3C78CF618
:100B40006666666F1E183060C1B366CCF0E6CD9B5A
:100B5000678F1B3367CCF0C183060C183167FCC369
:100B6000E7FFFFDBC3C3C3C3C3C7CFDFFDF9F1E3B7
:100B7000C78C7D8F1E3C78F1E3C6F8FCCD9B37CC4B
:100B8000183061E07D8F1E3C78F1EBDEF83070FCB0
:100B9000CD9B37CD99B367CC7D8F1B038181E3C695
:100BA000F8FFDB991818181818183CC78F1E3C78E6
:100BB000F1E3C6F8C3C3C3C3C3C3C3663C18C3C30E
:100BC000C3C3C3DBDBFF6666C3C3663C18183C6661
:100BD000C3C3C3C3C3663C181818183CFFC3860CB4
:100BE000183060C1C3FFFCCCCCCCCF81838383831E
:100BF000838302F33333333F38DB18FFCC7819F6A5
:100C00006CD99D80E0C183C6CCD9B366F87D8F06D0
:100C10000C18DF001C1831E6D9B366CCEC7D8FFED2
:100C20000C18DF0039B658F1861863C0779B366C14
:100C3000D99F06CCF0E0C183676CD9B367CC660E50
:100C400066666F0C30070C30C30C3CF378E0C18350
:100C500036CF1E3667CCE66666666FE6FFDBDBDB0B
:100C6000DBDBDCCD9B366CD9807D8F1E3C78DF00D2
:100C7000DCCD9B366CDF3061E0779B366CD99F060C
:100C80000C3CDCED9B060C3C007D8D81C0D8DF0068
:100C90001060C7E3060C183638CD9B366CD99D80A2
:100CA000C3C3C3C3663C18C3C3C3DBDBFF66C366F1
:100CB0003C183C66C3C78F1E3C78DF830DF0FF985D
:100CC000618618FF801CC30CE0C30C3070FF3FF03E
:100CD000E0C30C1CC30C338077B81071B63C78FFAE
:100CE000803CCF0E0C1830B33C181BE0CC00066CD7
:100CF000D9B366CCEC0C30C007D8FFE0C18DF01042
:100D000071B007819F66CD99D8CC0003C0CFB36680
:100D1000CCEC60606007819F66CD99D838D8E00739
:100D2000819F66CD99D87B3C30CDE183781071B03E
:100D300007D8FFE0C18DF0C60003EC7FF060C6F875
:100D400060606007D8FFE0C18DF0CC001C30C30CA0
:100D500031E031ECC070C30C30C780C30C0718C63B
:100D6000319EC60041C6D8F1FFC78F186C7001C60E
:100D7000D8F1FFC78F1830C007F66C1F3060CFF86E
:100D80006E3B1B7ED8DC773EDB366FF9B366CD9CBD
:100D90001071B007D8F1E3C78DF0C60003EC78F10D
:100DA000E3C6F860606007D8F1E3C78DF030F33038
:100DB0000CD9B366CD99D86060600CD9B366CD9973
:100DC000D8C600063C78F1E3C6FC186780C601F679
:100DD0003C78F1E3C78DF0C6031E3C78F1E3C78D84
:100DE000F018187EC3C0C0C0C37E181838D9930F3E
:100DF0000C183061CFF0C3663C18FF18FF181818A4
:100E0000FC66667C62666F666666F30E1B181818D1
:100E10007E1818181818D87018618007819F66CD41
:100E200099D836C0E66666F018618007D8F1E3C746
:100E30008DF01861800CD9B366CD99D877B806E6E5
:100E40006CD9B366CCDC031F3F7FF7E7C78F187BF5
:100E50006D9F03F076F6E07C306001830C3063C652
:100E6000F8FF83060C00FE0C183060C0C0C2C6CC70
:100E7000183060CE9B060C1FC1830E3CC30C33CFD1
:100E80002CF83060660666FFF636DB636360D8D800
:100E9000DB6D80884621188462118846211884629F
:100EA00000AA55AA55AA55AA55AA55AA55AA55AA9F
:100EB00077DD77DD77DD77DD77DD77DD77DD77FF70
:100EC000FFFFFC18C6318FE318C6318C6018C63F8F
:100ED0008FE318C6318C60366CD9B366FD9B366CD7
:100EE000D9B366CD80FE6CD9B366CD9B36F8FE31A2
:100EF0008C6318C6366CD9BF60FD9B366CD9B3665F
:100F0000CD80DEF7BDEF7BDEF7BDEF60FE0FD9B31E
:100F100066CD9B366CD8366CD9BF60FF80366CD9F5
:100F2000B366FF8018C63F8FE0F8C6318C6318C3E4
:100F30000C30C30FC0180C06030180C3FEFF8C06E3
:100F4000030180C060301800C30C30C30FF0C30C25
:100F500030C30C00FF80180C06030180C3FE30185C
:100F60000C06030180C060C30C30FF0FF0C30C30CF
:100F7000C30C00D9B366CD9B37ECD9B366CD9B3695
:100F800000D9B366CDF83F80FF837ECD9B366CD908
:100F9000B360361B0D86CF7803FEFF803DE6C3614C
:100FA000B0D86C361B0D80D9B366CDF837ECD9B309
:100FB00066CD9B3600FF803FE0361B0D86CF780361
:100FC000DE6C361B0D86C361B0D8180C06030FF813
:100FD00003FE361B0D86C361B3FEFF803FE3018035
:100FE000C06030180C0600FF9B0D86C361B0D86C42
:100FF0003600D9B366CD9B3F80C30C30FF0FC0FFD6
:101000000FF0C30C30C30C00FFB366CD9B366CD819
:10101000361B0D86C361B3FE6C361B0D86C361B0F3
:10102000D8180C06030FF8C3FE30180C0603018015
:10103000C06018C6318FE0FF0C30C30C30C0FFFF1A
:10104000FFFFFFFFFFFFFFFFFFFFFFFFFFFFFEFFB1
:10105000FFFFFFFFFFFFFFFFFF80FFFFFFFFFFFF1F
:10106000FFF0FFFFFFFFFFFFFFFFFFE0FFFFFFFFBE
:10107000FFFFFC77BB66CD9B9D80799B366D99B158
:10108000E3C798FF8F1E0C183060C180FED9B3668D
:10109000CD9B36FF8D8181861863FE7FB366CD9B25
:1010A0001C0066CD9B366F9830C077B860C1830650
:1010B0000CFCC7B3CF378CFC38DB1E3FF8F1B638D9
:1010C00038DB1E3C6D9B366DDC3D83067F3CF3CDEB
:1010D000E07EDBDBDB7E03067EDBDBF37E60C03B9A
:1010E000318FE31861C07D8F1E3C78F1E3C6FE00AE
:1010F00007F0003F8018187E18180000FF60C183B9
:1011000018C600FC18C63060C180FC76F78C6318E6
:10111000C6318C6018C6318C7BDEDC30C03F00C32A
:101120000077B803BDC076F6E0F0C00F0C0C0C0CD5
:101130000CEC6C6C3C1CD9B6DB6DB076CCCCFCFFF7
:10114000FFFFFFE0000000000900000000080A099E
:1011500000F30A00080A0900F3140007080900F563
:101160001B0007070900F5220008090900F42B00FD
:1011700008090900F4340004040902F73600080FD6
:101180000900F2450006060901F64A00080F0900A9
:10119000F25900070A0900F36200060A0901F36A1E
:1011A00000080A0900F37400080B0900F37F000827
:1011B000090900F48800070B0900F29200070B09E7
:1011C00000F29C0006090901F3A300060A0901F3D5
:1011D000AB00080A0900F3B500070C0900F2C000D3
:1011E00007040900F9C400060A0901F3CC00060A45
:1011F0000901F3D400060A0901F3DC000705090020
:10120000F6E10007050900F6E60007040900F7EA21
:101210000008050900F6EF0007070900F5F60007CA
:10122000070900F5FD000000090000FD00040A099F
:1012300002F3020106040901F2050107090900F49D
:101240000D01070D0900F2190107080900F5200139
:10125000070A0900F3290103040901F22B01040A1A
:101260000902F33001040A0902F3350108050900F7
:10127000F63A0106050901F63E0103040902FA40A7
:101280000107010900F8410102020903FB420107BD
:10129000080900F54901080A0900F35301060A0983
:1012A00001F35B01070A0900F36401070A0900F36F
:1012B0006D01070A0900F37601070A0900F37F01AF
:1012C000070A0900F38801070A0900F39101070AD8
:1012D0000900F39A01070A0900F3A30102070903B1
:1012E000F5A50103080902F5A80106090901F4AFF3
:1012F0000106040901F6B20106090901F4B9010762
:101300000A0900F3C20107090900F4CA01070A0922
:1013100000F3D301070A0900F3DC01070A0900F30F
:10132000E501070A0900F3EE01070A0900F3F701D6
:10133000070A0900F30002070A0900F30902070A75
:101340000900F31202040A0902F31702070A09004E
:10135000F32002070A0900F32902070A0900F33201
:1013600002080A0900F33C02070A0900F3450207D4
:101370000A0900F34E02070A0900F35702070C0995
:1013800000F36202070A0900F36B02070A0900F37F
:101390007402080A0900F37E02070A0900F38702B3
:1013A000080A0900F39102080A0900F39B02080ADF
:1013B0000900F3A502080A0900F3AF02080A0900B0
:1013C000F3B902040A0902F3BE0207090900F4C6D0
:1013D00002040A0902F3CB0207030900F2CE020855
:1013E000010900FECF0203020902F2D00207070939
:1013F00000F6D702070A0900F3E00207070900F622
:10140000E702070A0900F3F00207070900F6F702EE
:10141000060A0900F3FF02070A0900F60803070A93
:101420000900F31103040A0902F31603060D09016A
:10143000F32003070A0900F32903040A0902F32E23
:101440000308070900F6350307070900F63C030700
:10145000070900F64303070A0900F64C03070A09C7
:1014600000F6550307070900F65C0307070900F6B5
:101470006303070A0900F36C0307070900F6730307
:1014800008070900F67A0308070900F68103080730
:101490000900F68803070A0900F691030707090007
:1014A000F69803060A0901F3A003020A0903F3A34D
:1014B00003060A0901F3AB0307020900F3AD0307B2
:1014C000070900F5B403070C0900F3BF03070A0975
:1014D00000F3C803070B0900F2D203070B0900F25F
:1014E000DC03070A0900F3E503070B0900F2EF0329
:1014F000070B0900F2F90306090901F50004070BBF
:101500000900F20A04070A0900F31304070B090093
:10151000F21D04060A0901F32504060B0901F22E47
:1015200004050B0901F23504070B0900F23F04071B
:101530000B0900F24904070B0900F25304080709DC
:1015400000F65A04070A0900F36304070B0900F2C6
:101550006D04070A0900F37604070B0900F2800402
:10156000070B0900F28A04070B0900F29404070D27
:101570000900F3A004070B0900F2AA04070B0900F5
:10158000F2B404080B0900F2BF04070B0900F2C90A
:1015900004080A0900F3D304080B0900F2DE04086A
:1015A0000D0900F2EB04070B0900F2F504040B0926
:1015B00002F2FB04070B0900F20505070B0900F214
:1015C0000F05070A0900F31805070B0900F22205A9
:1015D00006060901F2270505060901F22B05070A8F
:1015E0000900F3340507050900F739050705090067
:1015F000F73E05080D0900F24B05070D0900F257EB
:1016000005040A0902F35C0507050900F6610507F0
:10161000050900F66605070F0901F27405080F09B0
:1016200000F28305080F0900F29205020F0903F288
:101630009605050F0900F2A005050F0900F2AA059D
:10164000070F0900F2B80507090900F8C005050BE6
:101650000900F6C705070F0900F2D505050F0902B5
:10166000F2DF05070B0900F6E90507070900F2F0AC
:101670000507070900F2F70505070900F2FC050553
:10168000090900F8020606070903F2080609070916
:1016900000F2100609090900F81B06060F0903F2FB
:1016A000270609010900F82906090F0900F23A0680
:1016B000060F0903F24606070F0902F25406070750
:1016C0000902F25B06070B0902F665060907090025
:1016D000F26D06090B0900F67A06070F0902F28877
:1016E0000609030900F68C06090F0900F29D060998
:1016F000070900F2A50609070900F2AD06090B0962
:1017000000F6BA0609090900F8C50607070902F23A
:10171000CC0606070903F2D206060B0903F6DB0620
:1017200007090902F8E306090F0900F2F406090F98
:101730000900F2050705070900F20A07060909036F
:10174000F81107090F0900F2220709090900F82D0D
:1017500007040F0900F23507050F0904F23F0709D6
:10176000060900F2460707070900F64D07070A09B0
:1017700000F35607070A0900F35F0707080900F599
:10178000660707090900F46E0707070900F67507E1
:1017900007090900F57D0707080900F58407060910
:1017A0000901F48B0707090900F49307070A0900E8
:1017B000F39C07060A0901F3A40708050900F6A926
:1017C0000708090900F4B207050A0901F3B9070778
:1017D000090900F4C10707070900F5C80708080947
:1017E00000F5D00706090901F4D70706090901F435
:1017F000DE07050E0903F3E707050B0900F2EE0704
:1018000006070901F5F40707050900F6F9070504BD
:101810000901F2FC0702020903F8FD0702010903AE
:10182000F9FE07080B0900F2090806060900F20E86
:101830000805060900F2120805070901F57E81A5D1
:101840008181BD9981817E7EFFDBFFFFC3E7FFFFC2
:101850007E6DFFFFFFEF8E081071F7F7C7040018C9
:101860003C3CE7E7E718183C183C7EFFFF7E181861
:101870003C6FF6FFFFFFFFFFE7C3C3E7FFFFFFFF7C
:10188000FFFF7B3861CDE0FFFFFFFFC399BDBD992E
:10189000C3FFFFFFFFFF1E1C699799B366CCF07B67
:1018A0003CF3CDE33F30C03F333F3030303070F059
:1018B000E07F637F6363636367E7E6C01818DB3C20
:1018C000E73CDB18188183878F9FFE78E182000256
:1018D0000C38F3FFCF8F0E0C0831EFCC30CFDE3059
:1018E000CF3CF3CF3CC0CF307FDBDBDB7B1B1B1B54
:1018F0001B1B7D8D81C6D8F1B6381B1BE0FFFFFF97
:10190000F031EFCC30CFDE33F031EFCC30C30C30E0
:10191000C030C30C30C33F78C0181BF8618030C39F
:10192000FB0300C18307F02466FF66241070E3E721
:10193000DFFF80FFFDF3E38704006FFF666066CF83
:101940003CD26CDBFB66CDBFB66C18FB1E1C0F8156
:1019500083878DF0C180C38C30C30C31C338D9B1BB
:10196000C77BB366CCEC6DE036CCCCCC63C63333EE
:10197000336C663CFF3C6630CFCC306DE0FEF0024D
:101980000C30C30C30403C66C3C3DBDBC3C3663CD6
:1019900031CF0C30C30C33F07D8C1861861860C7D2
:1019A000FC7D8C1833C0C183C6F80C38F36CDFC3E0
:1019B000060C3CFF83060FC0C183C6F838C3060F70
:1019C000D8F1E3C6F8FF8C1830C30C1830607D8F57
:1019D0001E37D8F1E3C6F87D8F1E37E0C1830CF0C7
:1019E000F03C6C00DE0C6318C183060CFC003FC1A8
:1019F00083060C6318C07D8F186183060018307D44
:101A00008F1EFDFBF7607C1071B63C7FF1E3C78C45
:101A1000FCCD9B37CCD9B367F83CCF0E0C183061A6
:101A20006678F8D99B366CD9B36DF0FECD8B478DB7
:101A3000183167FCFECD8B478D183061E03CCF0E2E
:101A40000C1BF1E36674C78F1E3FF8F1E3C78CF6F9
:101A50006666666F1E183060C1B366CCF0E6CD9B3B
:101A6000678F1B3367CCF0C183060C183167FCC34A
:101A7000E7FFFFDBC3C3C3C3C3C7CFDFFDF9F1E398
:101A8000C78C7D8F1E3C78F1E3C6F8FCCD9B37CC2C
:101A9000183061E07D8F1E3C78F1EBDEF83070FC91
:101AA000CD9B37CD99B367CC7D8F1B038181E3C676
:101AB000F8FFDB991818181818183CC78F1E3C78C7
:101AC000F1E3C6F8C3C3C3C3C3C3C3663C18C3C3EF
:101AD000C3C3C3DBDBFF6666C3C3663C18183C6642
:101AE000C3C3C3C3C3663C181818183CFFC3860C95
:101AF000183060C1C3FFFCCCCCCCCF8183838383FF
:101B0000838302F33333333F38DB18FFCC7819F685
:101B10006CD99D80E0C183C6CCD9B366F87D8F06B1
:101B20000C18DF001C1831E6D9B366CCEC7D8FFEB3
:101B30000C18DF0039B658F1861863C0779B366CF5
:101B4000D99F06CCF0E0C183676CD9B367CC660E31
:101B500066666F0C30070C30C30C3CF378E0C18331
:101B600036CF1E3667CCE66666666FE6FFDBDBDBEC
:101B7000DBDBDCCD9B366CD9807D8F1E3C78DF00B3
:101B8000DCCD9B366CDF3061E0779B366CD99F06ED
:101B90000C3CDCED9B060C3C007D8D81C0D8DF0049
:101BA0001060C7E3060C183638CD9B366CD99D8083
:101BB000C3C3C3C3663C18C3C3C3DBDBFF66C366D2
:101BC0003C183C66C3C78F1E3C78DF830DF0FF983E
:101BD000618618FF801CC30CE0C30C3070FF3FF01F
:101BE000E0C30C1CC30C338077B81071B63C78FF8F
:101BF000803CCF0E0C1830B33C181BE0CC00066CB8
:101C0000D9B366CCEC0C30C007D8FFE0C18DF01022
:101C100071B007819F66CD99D8CC0003C0CFB36661
:101C2000CCEC60606007819F66CD99D838D8E0071A
:101C3000819F66CD99D87B3C30CDE183781071B01F
:101C400007D8FFE0C18DF0C60003EC7FF060C6F856
:101C500060606007D8FFE0C18DF0CC001C30C30C81
:101C600031E031ECC070C30C30C780C30C0718C61C
:101C7000319EC60041C6D8F1FFC78F186C7001C6EF
:101C8000D8F1FFC78F1830C007F66C1F3060CFF84F
:101C90006E3B1B7ED8DC773EDB366FF9B366CD9C9E
:101CA0001071B007D8F1E3C78DF0C60003EC78F1EE
:101CB000E3C6F860606007D8F1E3C78DF030F33019
:101CC0000CD9B366CD99D86060600CD9B366CD9954
:101CD000D8C600063C78F1E3C6FC186780C601F65A
:101CE0003C78F1E3C78DF0C6031E3C78F1E3C78D65
:101CF000F018187EC3C0C0C0C37E181838D9930F1F
:101D00000C183061CFF0C3663C18FF18FF18181884
:101D1000FC66667C62666F666666F30E1B181818B2
:101D20007E1818181818D87018618007819F66CD22
:101D300099D836C0E66666F018618007D8F1E3C727
:101D40008DF01861800CD9B366CD99D877B806E6C6
:101D50006CD9B366CCDC031F3F7FF7E7C78F187BD6
:101D60006D9F03F076F6E07C306001830C3063C633
:101D7000F8FF83060C00FE0C183060C0C0C2C6CC51
:101D8000183060CE9B060C1FC1830E3CC30C33CFB2
:101D90002CF83060660666FFF636DB636360D8D8E1
:101DA000DB6D808846211884621188462118846280
:101DB00000AA55AA55AA55AA55AA55AA55AA55AA80
:101DC00077DD77DD77DD77DD77DD77DD77DD77FF51
:101DD000FFFFFC18C6318FE318C6318C6018C63F70
:101DE0008FE318C6318C60366CD9B366FD9B366CB8
:101DF000D9B366CD80FE6CD9B366CD9B36F8FE3183
:101E00008C6318C6366CD9BF60FD9B366CD9B3663F
:101E1000CD80DEF7BDEF7BDEF7BDEF60FE0FD9B3FF
:101E200066CD9B366CD8366CD9BF60FF80366CD9D6
:101E3000B366FF8018C63F8FE0F8C6318C6318C3C5
:101E40000C30C30FC0180C06030180C3FEFF8C06C4
:101E5000030180C060301800C30C30C30FF0C30C06
:101E600030C30C00FF80180C06030180C3FE30183D
:101E70000C06030180C060C30C30FF0FF0C30C30B0
:101E8000C30C00D9B366CD9B37ECD9B366CD9B3676
:101E900000D9B366CDF83F80FF837ECD9B366CD9E9
:101EA000B360361B0D86CF7803FEFF803DE6C3612D
:101EB000B0D86C361B0D80D9B366CDF837ECD9B3EA
:101EC00066CD9B3600FF803FE0361B0D86CF780342
:101ED000DE6C361B0D86C361B0D8180C06030FF8F4
:101EE00003FE361B0D86C361B3FEFF803FE3018016
:101EF000C06030180C0600FF9B0D86C361B0D86C23
:101F00003600D9B366CD9B3F80C30C30FF0FC0FFB6
:101F10000FF0C30C30C30C00FFB366CD9B366CD8FA
:101F2000361B0D86C361B3FE6C361B0D86C361B0D4
:101F3000D8180C06030FF8C3FE30180C06030180F6
:101F4000C06018C6318FE0FF0C30C30C30C0FFFFFB
:101F5000FFFFFFFFFFFFFFFFFFFFFFFFFFFFFEFF92
:101F6000FFFFFFFFFFFFFFFFFF80FFFFFFFFFFFF00
:101F7000FFF0FFFFFFFFFFFFFFFFFFE0FFFFFFFF9F
:101F8000FFFFFC77BB66CD9B9D80799B366D99B139
:101F9000E3C798FF8F1E0C183060C180FED9B3666E
:101FA000CD9B36FF8D8181861863FE7FB366CD9B06
:101FB0001C0066CD9B366F9830C077B860C1830631
:101FC0000CFCC7B3CF378CFC38DB1E3FF8F1B638BA
:101FD00038DB1E3C6D9B366DDC3D83067F3CF3CDCC
:101FE000E07EDBDBDB7E03067EDBDBF37E60C03B7B
:101FF000318FE31861C07D8F1E3C78F1E3C6FE008F
:1020000007F0003F8018187E18180000FF60C18399
:1020100018C600FC18C63060C180FC76F78C6318C7
:10202000C6318C6018C6318C7BDEDC30C03F00C30B
:102030000077B803BDC076F6E0F0C00F0C0C0C0CB6
:102040000CEC6C6C3C1CD9B6DB6DB076CCCCFCFFD8
:10205000FFFFFFE000000000003E5B4F5B3E3E6B79
:102060004F6B3E1C3E7C3E1C183C7E3C181C577D32
:10207000571C1C5E7F5E1C00183C1800FFE7C3E77E
:10208000FF0018241800FFE7DBE7FF30483A060E90
:102090002629792926407F050507407F05253F5AD7
:1020A0003CE73C5A7F3E1C1C08081C1C3E7F142247
:1020B0007F22145F5F005F5F06097F017F006689F2
:1020C000956A606060606094A2FFA29408047E0438
:1020D0000810207E201008082A1C08081C2A08085E
:1020E0001E101010100C1E0C1E0C30383E3830061E
:1020F0000E3E0E06000000000000005F000000071A
:10210000000700147F147F14242A7F2A1223130847
:10211000646236495620500008070300001C224123
:10212000000041221C002A1C7F1C2A08083E0808C7
:102130000080703000080808080800006060002077
:10214000100804023E5149453E00427F400072495A
:102150004949462141494D331814127F10274545FE
:1021600045393C4A49493141211109073649494914
:1021700036464949291E0000140000004034000082
:1021800000081422411414141414004122140802EB
:10219000015909063E415D594E7C1211127C7F495E
:1021A0004949363E414141227F4141413E7F4949B3
:1021B00049417F090909013E414151737F080808DF
:1021C0007F00417F41002040413F017F08142241B0
:1021D0007F404040407F021C027F7F0408107F3E0A
:1021E0004141413E7F090909063E4151215E7F0977
:1021F000192946264949493203017F01033F4040DE
:10220000403F1F2040201F3F4038403F63140814C8
:102210006303047804036159494D43007F41414100
:102220000204081020004141417F040201020440E1
:1022300040404040000307080020545478407F2865
:102240004444383844444428384444287F3854545B
:10225000541800087E090218A4A49C787F0804047E
:102260007800447D40002040403D007F102844001D
:1022700000417F40007C047804787C0804047838AE
:1022800044444438FC1824241818242418FC7C08DE
:10229000040408485454542404043F44243C40405B
:1022A000207C1C2040201C3C4030403C442810280E
:1022B000444C9090907C4464544C44000836410057
:1022C0000000770000004136080002010204023CD1
:1022D0002623263C1EA1A161123A4040207A3854A0
:1022E0005455592155557941225454784221555419
:1022F000784020545579400C1E527212395555556C
:1023000059395454545939555454580000457C4156
:102310000002457D420001457C407D1211127DF096
:10232000282528F07C545545002054547C547C0AC0
:10233000097F4932494949323A4444443A324A4889
:1023400048303A4141217A3A42402078009DA0A08D
:102350007D3D4242423D3D4040403D3C24FF2424DF
:10236000487E4943662B2FFC2F2BFF0929F620C0FE
:10237000887E090320545479410000447D4130484F
:10238000484A32384040227A007A0A0A727D0D1992
:10239000317D2629292F28262929292630484D40F4
:1023A00020380808080808080808382F10C8ACBAF0
:1023B0002F102834FA00007B000008142A1422226F
:1023C000142A14085500550055AA55AA55AAFF55B8
:1023D000FF55FF000000FF00101010FF0014141440
:1023E000FF001010FF00FF1010F010F0141414FC88
:1023F000001414F700FF0000FF00FF1414F404FCA5
:10240000141417101F10101F101F1414141F001085
:102410001010F0000000001F101010101F101010FE
:1024200010F010000000FF1010101010101010100D
:10243000FF10000000FF140000FF00FF00001F104D
:10244000170000FC04F414141710171414F404F407
:102450000000FF00F714141414141414F700F714F8
:102460001414171410101F101F141414F414101047
:10247000F010F000001F101F0000001F14000000EB
:10248000FC140000F010F01010FF10FF141414FFE3
:10249000141010101F00000000F010FFFFFFFFFFDE
:1024A000F0F0F0F0F0FFFFFF0000000000FFFF0F72
:1024B0000F0F0F0F3844443844FC4A4A4A347E0216
:1024C000020606027E027E02635549416338444497
:1024D0003C04407E201E2006027E020299A5E7A54C
:1024E000991C2A492A1C4C7201724C304A4D4D30BD
:1024F0003048784830BC625A463D3E494949007EE2
:102500000101017E2A2A2A2A2A44445F4444405178
:102510004A444040444A51400000FF0103E080FF2C
:10252000000008086B6B083612362436060F090FB8
:1025300006000018180000001010003040FF0101D4
:10254000001F01011E00191D1712003C3C3C3C00FD
:102550000000000064426D003A00446976002D2DB1
:102560002D4F46462D2D2D003A00434D4F53002050
:102570002D2D2D4F46462D2D2D003A004853544CFD
:10258000003A004F7574005246004726410044440B
:102590005339393132002D09340200FE0F412F42E8
:1025A000003A00534B0053776565700053617665C0
:1025B000436C6F636B53657474696E6773004C6F23
:1025C0006164696E6720436C6F636B20536574743C
:1025D000696E67730000000000003E5B4F5B3E3E8B
:1025E0006B4F6B3E1C3E7C3E1C183C7E3C181C57BF
:1025F0007D571C1C5E7F5E1C00183C1800FFE7C363
:10260000E7FF0018241800FFE7DBE7FF30483A0631
:102610000E2629792926407F050507407F05253F9D
:102620005A3CE73C5A7F3E1C1C08081C1C3E7F1489
:10263000227F22145F5F005F5F06097F017F0066D3
:1026400089956A606060606094A2FFA29408047E2D
:10265000040810207E201008082A1C08081C2A08DC
:10266000081E101010100C1E0C1E0C30383E383096
:10267000060E3E0E06000000000000005F00000095
:1026800007000700147F147F14242A7F2A122313C3
:1026900008646236495620500008070300001C22D7
:1026A00041000041221C002A1C7F1C2A08083E0809
:1026B000080080703000080808080800006060000A
:1026C00020100804023E5149453E00427F400072FE
:1026D000494949462141494D331814127F10274575
:1026E0004545393C4A494931412111090736494993
:1026F0004936464949291E000014000000403400B4
:102700000000081422411414141414004122140867
:1027100002015909063E415D594E7C1211127C7F1F
:10272000494949363E414141227F4141413E7F492D
:102730004949417F090909013E414151737F080818
:10274000087F00417F41002040413F017F08142263
:10275000417F404040407F021C027F7F0408107F81
:102760003E4141413E7F090909063E4151215E7FBC
:1027700009192946264949493203017F01033F408F
:1027800040403F1F2040201F3F4038403F63140817
:10279000146303047804036159494D43007F4141A8
:1027A000410204081020004141417F04020102045B
:1027B0004040404040000307080020545478407FC8
:1027C000284444383844444428384444287F385402
:1027D00054541800087E090218A4A49C787F0804A9
:1027E000047800447D40002040403D007F10284494
:1027F0000000417F40007C047804787C0804047861
:102800003844444438FC1824241818242418FC7C28
:1028100008040408485454542404043F44243C400D
:1028200040207C1C2040201C3C4030403C44281070
:1028300028444C9090907C4464544C4400083641A9
:102840000000007700000041360800020102040287
:102850003C2623263C1EA1A161123A4040207A3832
:102860005454555921555579412254547842215593
:1028700054784020545579400C1E527212395555E7
:102880005559395454545939555454580000457CBD
:10289000410002457D420001457C407D1211127DC0
:1028A000F0282528F07C545545002054547C547C55
:1028B0000A097F4932494949323A4444443A324A42
:1028C0004848303A4141217A3A42402078009DA060
:1028D000A07D3D4242423D3D4040403D3C24FF24DE
:1028E00024487E4943662B2FFC2F2BFF0929F62015
:1028F000C0887E090320545479410000447D413052
:1029000048484A32384040227A007A0A0A727D0DDD
:1029100019317D2629292F28262929292630484D95
:102920004020380808080808080808382F10C8ACE4
:10293000BA2F102834FA00007B000008142A142251
:1029400022142A14085500550055AA55AA55AAFF65
:1029500055FF55FF000000FF00101010FF00141479
:1029600014FF001010FF00FF1010F010F0141414EA
:10297000FC001414F700FF0000FF00FF1414F4041F
:10298000FC141417101F10101F101F1414141F0014
:10299000101010F0000000001F101010101F101079
:1029A0001010F010000000FF101010101010101088
:1029B00010FF10000000FF140000FF00FF00001FC8
:1029C00010170000FC04F414141710171414F40466
:1029D000F40000FF00F714141414141414F700F793
:1029E000141414171410101F101F141414F41410BE
:1029F00010F010F000001F101F0000001F14000056
:102A000000FC140000F010F01010FF10FF1414145C
:102A1000FF141010101F00000000F010FFFFFFFF58
:102A2000FFF0F0F0F0F0FFFFFF0000000000FFFFFC
:102A30000F0F0F0F0F3844443844FC4A4A4A347E83
:102A400002020606027E027E026355494163384453
:102A5000443C04407E201E2006027E020299A5E727
:102A6000A5991C2A492A1C4C7201724C304A4D4DC2
:102A7000303048784830BC625A463D3E49494900AA
:102A80007E0101017E2A2A2A2A2A44445F444440C6
:102A9000514A444040444A51400000FF0103E08055
:102AA000FF000008086B6B083612362436060F0943
:102AB0000F06000018180000001010003040FF0141
:102AC00001001F01011E00191D1712003C3C3C3C77
:102AD00000000000002200FF2100000103070F1F7B
:102AE0003F7F0080C0E0F0F8FCFEDB40A4A62EAFE4
:102AF000DA0281DA1281DA02818F2000A1C8D300C4
:102B0000408DAED580A800006000000000000000ED
:102B100000000000000000E00000000000000000D5
:102B2000000000000001E0000000000000000000C4
:102B30000000000001F000000000000000000000A4
:102B400000000003F0000000000000000000000092
:102B5000000007F00000000000000000000000007E
:102B60000007F80000000000000000000000000066
:102B70000FF800000003C0007E000001E0007F0F9E
:102B8000F800000003C000FE000001E000FFEFF8C5
:102B900000000003C000FE000001E000FFFFF8009D
:102BA000000003C000F00000000F007FFE7FC000A7
:102BB0000003C000F00000000F003FFE7FF83FF16F
:102BC000FBCFFCFEF3BC3DEFE01FFE7FFF7FFBFF72
:102BD000DFFEFEFFBC3DEFE01FC6FFFF7FFBFFDF18
:102BE000FEFEFFBC3DEFE00FE3C7FE787BC3DE1EB9
:102BF000F0FFBC3DEF0007FF87FC787BC3DE1EF0D3
:102C0000F83C3DEF0001FFFFF0007BC3C01EF0F079
:102C10003C3DEF0001F37FE03FFBC3CFFEF0F03C13
:102C20003DEF0003E33F807FFBC3DFFEF0F03C3D60
:102C3000EF0007E73C00787BC3DE1EF0F03C3DEF81
:102C40000007FFBE00787BC3DE1EF0F03C3DEF00C6
:102C500007FFFE00787BC3DE1EF0F03C3DEF000F67
:102C6000FFFE007FFBFFDFFEF0F03FFDEFE00FFF18
:102C7000FF007FFBFFDFFEF0F03FFDEFE00FF9FF0D
:102C8000003E79F9CF9EF0F01F3DE7E01FF1FF0015
:102C900000000000000000000000001F80FF007F17
:102CA000FFFFFFFFFFFFFFFFFFE01C007F007FFF34
:102CB000FFFFFEB46D888D18E000001F007FFFFF4E
:102CC000FFFE95AD7DB577E000000F007FFFFFFFB1
:102CD000FEA5AD9D8D19E0000006007FFFFFFFFE01
:102CE000B5ADEDB57EE00000000000018000000001
:102CF0000000000000000380000000000000000051
:102D00000007C000000000000000000007C0000035
:102D1000000000000000000FC000000000000000E4
:102D200000001FE00000000000000000001FE000A5
:102D300000000000000000003FE000000000000074
:102D40000000003FF00000000000000000007FF0E5
:102D5000000000000000001FF87FF00000000000ED
:102D600000003FFE7FF0000000000000003FFF7FFA
:102D7000F0000000000000001FFFFBE0000000006A
:102D80000000000FFFF9FFC00000000000000FFF6F
:102D9000F9FFF800000000000007FFF1FFFF00004E
:102DA0000000000003FC73FFFF8000000000000132
:102DB000FE3FFFFF80000000000000FF1E0FFF002D
:102DC0000000000000007FFE1FFC0000000000006B
:102DD000003FFFFFF8000000000000000FDFFFE0F1
:102DE000000000000000001F19FFC00000000000EC
:102DF00000003F3CFF00000000000000007E7CF867
:102E000000000000000000007FFE7C0000000000C9
:102E1000000000FFFFFC0000000000000000FFFFBA
:102E2000FE0000000000000000FFFFFE00000000A8
:102E300000000001FFEFFE0000000000000001FFA5
:102E4000CFFE0000000000000003FF07FE000000AE
:102E50000000000003FC07FE00000000000000036B
:102E6000F003FE00000000000000018000FE0000F2
:102E700000000000000000007E00000000000000D4
:102E80000000003E000000000000000000000C00F8
:102E90000000000000078000FC000003C0000000EC
:102EA000078001FC000003C0000000078001FC0057
:102EB0000003C0000000078001E00000001E0000C9
:102EC00000078001E00000001E007FE3F79FF9FD8E
:102ED000E7787BDFC0FFF7FFBFFDFDFF787BDFC03A
:102EE000FFF7FFBFFDFDFF787BDFC0F0F787BC3D3C
:102EF000E1FF787BDE00F0F787BC3DE1F0787BDE18
:102F00000000F787803DE1E0787BDE007FF7879F58
:102F1000FDE1E0787BDE00FFF787BFFDE1E0787B35
:102F2000DE00F0F787BC3DE1E0787BDE00F0F7875C
:102F3000BC3DE1E0787BDE00F0F787BC3DE1E07866
:102F40007BDE00FFF7FFBFFDE1E07FFBDFC0FFF7A7
:102F5000FFBFFDE1E07FFBDFC07CF3F39F3DE1E0DD
:102F60003E7BCFC00000000000000000000000FF1A
:102F7000FFFFFFFFFFFFFFFFFFC0FFFFFFFFFD6839
:102F8000DB111A31C0FFFFFFFFFD2B5AFB6AEFC0B8
:102F9000FFFFFFFFFD4B5B3B1A33C0FFFFFFFFFD51
:102FA0006B5BDB6AFDC0322E20486F6C64204D4F96
:102FB00044452C207768696C652020506F776572D6
:102FC000696E67204F6E2C20746F20526573657494
:102FD000616C6C2073657474696E67732E00312E9A
:102FE00020486F6C64204D4F444520746F20656EFF
:102FF00074657253657475702E007665722E3A2072
:10300000004669726D7761726500546970733A00A9
:103010004C6F6164696E67204D61696E2053657401
:1030200074696E6773004C6F6164696E67205377D3
:103030006565702053657474696E677300446566D6
:1030400061756C742073776565702073657474693D
:103050006E67732E2E2E0044656661756C74207346
:10306000657474696E67732E2E2E004669726D77D3
:1030700061726520762E3A00444453204144393928
:1030800031322041726475696E6F20536869656CD6
:103090006420627920475241202620414643482E31
:1030A00020286772612D616663682E636F6D290049
:1030B000556E6B6E6F776E20636F6D6D616E643AE7
:1030C0000046202D20736574204672657175656E0B
:1030D000637920696E20487A2028313030303030D2
:1030E000202D20353030303030303030290A482023
:1030F0002D20536574204853544C204F75747075BF
:10310000743A2030202D204F46462C2031202D208F
:103110004F4E2C2032202D20446F75626C65720A50
:1031200043202D2053657420434D4F53204F757419
:103130007075743A2030202D204F46462C203120C7
:103140002D204F4E0A44202D2053657420434D4FAF
:10315000532044697669646572202831202D203619
:1031600035333533290A50202D20536574204F758F
:103170007470757420506F77657220696E20644298
:103180006D20282D37202D202B34290A4D202D206D
:10319000476574204D6F64656C0A56202D20476585
:1031A00074204669726D7761726520566572736925
:1031B0006F6E0A68202D20546869732048656C7012
:1031C0000A3B202D20436F6D6D616E647320536543
:1031D00070617261746F720A4578616D706C653AE6
:1031E0000A463130303030303B502D320A5365744E
:1031F000204672657175656E637920746F20313079
:1032000030206B487A2C20616E64204F7574707585
:103210007420506F77657220746F202D32206442C5
:103220006D2E0A416E79206E756D626572206F6633
:1032300020636F6D6D616E647320696E20616E79BD
:10324000206F7264657220697320616C6C6F7765A2
:10325000642E00444453393931322076312E330004
:1032600053657420506F7765722E3A200053657451
:10327000204469766964657220666F7220434D4F01
:10328000533A200053657420434D4F533A20004376
:103290004D4F53206973204F5554204F46205241C3
:1032A0004E4745202830202D2031290053657420B9
:1032B0004853544C3A20004853544C206973204FD3
:1032C0005554204F462052414E4745202830202D4E
:1032D0002032290053657420667265712E3A2000F1
:1032E000457869740000001C00220027002A802213
:1032F00000AA00720022001C0000000000220072E0
:1033000000AA002200220022002A802700220000BA
:1033100000000008001C002A00080008000800083F
:103320000008000800000053746172740053746F49
:1033300070003A00546F3A0046726F6D3A0053774E
:10334000656570204752412641464348003D184478
:103350001100FE0F00002100240027002A002D008C
:103360003000330001010000040107010A010000E0
:103370002200250028002B002E003100340002011D
:103380000000050108010B0100000A0B02090C0DE9
:103390000E08070304010000000000000000000008
:1033A000000000000000000000000000000000001D
:1033B00000000000121110000000000000000000DA
:1033C00000000000000000000000000000000102FA
:1033D0001020200808102040102040800201020127
:1033E00008040201010204081020408080402010DF
:1033F0000804020180040201804020100804020138
:10340000080402010102040810204080010204089F
:1034100010204080000020002300260029002C00FE
:103420002F0032000001000003010601090105051B
:103430000505070508080808020202020A0A08082A
:103440000404040401010101010101010303030358
:1034500003030303040707070C0C0C0C0C0C0C0CE7
:103460000202020206060606060606060B0B0B0BF8
:103470000B0B0B0B34400A4011241FBECFEFD1E2DF
:10348000DEBFCDBF00E00CBF26E0AEEDB3E001C073
:103490001D92A237B207E1F713E0A0E0B2E0E0EB43
:1034A000F3EC00E00BBF02C007900D92AE3DB107F8
:1034B000D9F71AE1CBE3DAE100E006C02197010970
:1034C000802FFE010E947359CA33D10780E008079C
:1034D000A9F70E9413420C94C6610C940000089551
:1034E0008150823108F05AC0E82FF0E08827E45874
:1034F000F54E8F4F0C9473599C1AA01A8E1A941A79
:10350000981ACE1AA31AA91AAD1AB31AB71ABB1A67
:10351000C11AC51ACE1AC91ACF1AD31A80918000BF
:103520008F77809380000895809180008F7DF9CF00
:1035300080918000877FF5CF84B58F7784BD089513
:1035400084B58F7DFBCF8091B0008F778093B000E2
:1035500008958091B0008F7DF9CF809190008F7792
:10356000809390000895809190008F7DF9CF809195
:103570009000877FF5CF8091A0008F778093A00087
:1035800008958091A0008F7DF9CF8091A000877F62
:10359000F5CF809120018F7780932001089580914D
:1035A00020018F7DF9CF80912001877FF5CF1F9378
:1035B000CF93DF93282F30E0F901E857FC4C84913A
:1035C000F901E253FC4CD491F901E25DFB4CC4914A
:1035D000CC23A9F0162F81110E94701AEC2FF0E075
:1035E000EE0FFF1FE259FC4CA591B4918FB7F894F0
:1035F000EC91111108C0D095DE23DC938FBFDF91D1
:10360000CF911F910895DE2BF8CFCF93DF9390E0F9
:10361000FC01E253FC4C2491825D9B4CFC018491A3
:103620008823C9F090E0880F991FFC01EC5AFC4CEC
:10363000A591B491FC01E259FC4CC591D491611162
:103640000DC09FB7F8948C91209582238C9388812C
:10365000282328839FBFDF91CF910895623051F4D2
:103660009FB7F8943C91822F809583238C93E881B7
:103670002E2BEFCF8FB7F894EC912E2B2C938FBF7E
:10368000EACF3FB7F8948091EE049091EF04A091B7
:10369000F004B091F10426B5A89B05C02F3F19F0A6
:1036A0000196A11DB11D3FBFBA2FA92F982F8827C2
:1036B000BC01CD01620F711D811D911D42E0660F9D
:1036C000771F881F991F4A95D1F708958F929F926F
:1036D000AF92BF92CF92DF92EF92FF924B015C01CB
:1036E0000E94411B6B017C010E94411B6C197D09EA
:1036F0008E099F09683E734081059105A8F321E07A
:10370000821A9108A108B10888EEC80E83E0D81E7D
:10371000E11CF11C81149104A104B10429F7FF906C
:10372000EF90DF90CF90BF90AF909F908F900895D3
:103730002FB7F8946091EA047091EB048091EC0447
:103740009091ED042FBF0895CF92DF92EF92FF92F8
:10375000CF93DF930E94981B6B017C012091110590
:1037600030E0F901E857FC4C8491F901E253FC4C3C
:10377000D491F901E25DFB4CC491CC2309F477C0EC
:1037800081110E94701AEC2FF0E0EE0FFF1FEC5E2B
:10379000FB4CA591B491EC91DE2331E020E009F4DB
:1037A00030E0832F922F282F217020931305209132
:1037B0001205211105C021E0822781708093130535
:1037C0008091130590911405891741F0C092170557
:1037D000D0921805E0921905F0921A05409117054C
:1037E000509118056091190570911A05C41AD50AEF
:1037F000E60AF70A40910505509106056091070514
:10380000709108054C155D056E057F0594F4909147
:103810000405891771F080930405882371F02091C5
:103820001505309116052F5F3F4F309316052093F5
:1038300015059091040591111DC040910905509105
:103840000A0560910B0570910C05209115053091CA
:1038500016054C155D056E057F0504F18093140572
:10386000DF91CF91FF90EF90DF90CF90089590E09F
:1038700080E099CF40910D0550910E0560910F05A4
:10388000709110054C155D056E057F053CF7209184
:1038900015053091160531952195310930930305B1
:1038A000209302051092160510921505D7CF0895A2
:1038B00008950895DB0114964D915C9115976D91D3
:1038C0007C91DC01ED91FC910280F381E02D199453
:1038D000EF92FF920F931F93CF93DF938C017B01A5
:1038E000D0E0C0E0F701EC0FFD1F6491662361F0AA
:1038F000D801ED91FC910190F081E02DC80119955E
:10390000892B11F02196EECFCE01DF91CF911F913F
:103910000F91FF90EF900895AF92BF92CF92DF92F8
:10392000EF92FF920F931F93CF93DF936C017B0174
:103930008B01040F151FEB015E01AE18BF08C01705
:10394000D10759F06991D601ED91FC910190F08178
:10395000E02DC6011995892B79F7C501DF91CF912B
:103960001F910F91FF90EF90DF90CF90BF90AF909D
:103970000895FC01538D448D252F30E0842F90E075
:10398000821B930B541710F0CF960895019708955A
:10399000FC01918D828D981761F0A28DAE0FBF2F23
:1039A000B11D5D968C91928D9F5F9F73928F90E079
:1039B00008958FEF9FEF0895FC01918D828D9817E8
:1039C00031F0828DE80FF11D858D90E008958FEF25
:1039D0009FEF0895FC01918D228D892F90E0805CEE
:1039E0009F4F821B91098F73992708958BE395E070
:1039F0000E94EA1C21E0892B09F420E0822F08951F
:103A0000FC01A48DA80FB92FB11DA35ABF4F2C9153
:103A1000848D90E001968F739927848FA689B7894A
:103A20002C93A089B1898C91837080648C93938D41
:103A3000848D981306C00288F389E02D80818F7DE4
:103A400080830895EF92FF920F931F93CF93DF939C
:103A5000EC0181E0888F9B8D8C8D98131AC0E889CA
:103A6000F989808185FF15C09FB7F894EE89FF8999
:103A70006083E889F98980818370806480839FBF37
:103A800081E090E0DF91CF911F910F91FF90EF9037
:103A90000895F62E0B8D10E00F5F1F4F0F73112747
:103AA000E02E8C8D8E110CC00FB607FCFACFE88982
:103AB000F989808185FFF5CFCE010E94001DF1CFED
:103AC000EB8DEC0FFD2FF11DE35AFF4FF0829FB7F6
:103AD000F8940B8FEA89FB8980818062CFCFCF93E6
:103AE000DF93EC01888D8823B9F0AA89BB89E88926
:103AF000F9898C9185FD03C0808186FD0DC00FB6CC
:103B000007FCF7CF8C9185FFF2CF808185FFEDCF49
:103B1000CE010E94001DE9CFDF91CF91089580E092
:103B200090E0892B29F00E94F61C81110E94000070
:103B300080E090E0892B49F080E090E0892B29F02B
:103B40000E94000081110E94000080E090E0892B1B
:103B500049F080E090E0892B29F00E94000081115B
:103B60000E94000080E090E0892B49F080E090E026
:103B7000892B29F00E94000081110C940000089507
:103B8000EF92FF920F931F93CF93DF93EC01EC80A2
:103B9000FD806E157F050CF070C057FF04C0240F28
:103BA000351F50E040E08E819F81FA01E20FF31F44
:103BB0008E179F071CF49C01241B350B121613064D
:103BC0000CF05BC0922F842F8695869586958E9DEE
:103BD000D0018F9DB00D11246A0F7B1FAF8DB8A14E
:103BE000A60FB71F477049F188E0841B482F682F44
:103BF00070E0FB01EE51F54DE491281708F063C029
:103C0000621B71092FEF30E002C0359527956A9548
:103C1000E2F7E2230130110539F0B0F1023011056D
:103C200061F58C91E82702C08C91E82BEC939417F6
:103C300020F12C813D81A20FB31FE92FE41BE83056
:103C400078F00230110521F58E2F9C9190959C9370
:103C50002C813D81A20FB31F88508830B0F7E770E8
:103C6000EE2359F0F0E0E652F54DE49101301105F4
:103C7000F9F010F10230110519F1DF91CF911F9188
:103C80000F91FF90EF900895E0958C91E823CECFAF
:103C900081E00115110509F480E081959E2F8C9338
:103CA0002C813D81A20FB31F98509830C0F7D7CF19
:103CB0008C91E82BEC93E1CFE0958C91E823FACF3F
:103CC0008C91E827F7CF0130110509F4ADCFE0F270
:103CD0000230110509F4A5CFAE0DBF1DAECF0F9375
:103CE0001F93CF93DF9377FF04C0260F371F70E039
:103CF00060E0DC011496CD91DC91FB01E20FF31F33
:103D0000CE17DF071CF49E01261B370B1216130675
:103D10004CF5FA0157FD3796A3E0F595E795AA957E
:103D2000E1F7EC9FD001ED9FB00DFC9FB00D112489
:103D30006A0F7B1FDC015F96ED91FC91E60FF71F88
:103D40004770552781E090E001C0880F4A95EAF757
:103D5000482F0130110559F0A8F02E0F3F1F0230F7
:103D60001105E1F0DF91CF911F910F9108952E0F72
:103D70003F1FE217F307B1F38191DF011197842B05
:103D80008C93F7CF80952E0F3F1FE217F30751F367
:103D90009191DF01119798239C93F7CFE217F307D6
:103DA00009F38191DF01119784278C93F7CF0F934B
:103DB0001F93FA01DC0156964C9156974230E9F078
:103DC0004330A1F1413061F514964D915C91DA01D7
:103DD000AE1BBF0BFD01E21BF30B77FD0BC0DC013B
:103DE00016964D915C916417750724F4AB01BF01E1
:103DF0000E946F1E1F910F91089514964D915C9132
:103E0000DA01A61BB70BBD0161507109DC011696E2
:103E10004D915C91DA01AE1BBF0BFD01E21BF30B70
:103E200077FDE8CFAF010E94C01DE4CF16964D91FB
:103E30005C91DA01A61BB70BBD0161507109CDCFB2
:103E40000F931F93FA01DC0156964C91569742301E
:103E5000A9F0433091F1413019F514964D915C91E0
:103E6000DA01AE1BBF0BFD013197F7FD04C0AB01BA
:103E7000BF010E94C01D1F910F91089514964D918E
:103E80005C91DA01A61BB70BBD01DC0116964D91C2
:103E90005C91DA01AE1BBF0BFD013197621B730B06
:103EA000F7FDE9CFDC0116964D915C91E417F5071B
:103EB00014F7AF010E946F1EDECF16964D915C91F4
:103EC000DA01A61BB70BBD01621B730BCECFFC0141
:103ED00077FD64C080859185681779070CF05EC016
:103EE00057FD5CC082859385481759070CF056C072
:103EF00086898230B1F0833029F1813041F48481A8
:103F00009581841B950BAB01BC0161507109213077
:103F1000310509F108F443C02230310509F463C0CA
:103F2000089584819581DC01A61BB70BBD0161500A
:103F3000710986819781DC01A41BB50BAD0141504D
:103F40005109E5CF86819781861B970BBA01AC0199
:103F500041505109DCCFCA0157FD0796A3E0959562
:103F60008795AA95E1F7A481B5818A9F90018B9FDF
:103F7000300D9A9F300D1124620F731F078CF0A132
:103F8000E02DE60FF71F4770552721E030E001C014
:103F9000220F4A95EAF78081822B80830895CA0117
:103FA00057FD079633E0959587953A95E1F7A481FB
:103FB000B5818A9F90018B9F300D9A9F300D1124FF
:103FC000620F731F078CF0A1E02DE60FF71F4770FB
:103FD000552781E090E001C0880F4A95EAF7809567
:103FE00090818923DACFCA0157FD079623E0959582
:103FF00087952A95E1F7A481B5818A9F90018B9FCF
:10400000300D9A9F300D1124620F731F078CF0A1A1
:10401000E02DE60FF71F4770552721E030E001C083
:10402000220F4A95EAF780818227B7CF08958CBD89
:104030009DBD08950895FC016370668B8481958110
:1040400026813781613039F0633029F0918780878C
:104050003387228708953187208793878287089541
:104060002F923F924F925F926F927F928F929F9288
:10407000AF92BF92CF92DF92EF92FF920F931F9376
:10408000CF93DF93CDB7DEB76A970FB6F894DEBF54
:104090000FBECDBF9A8F898F7A8369834A01D22E52
:1040A00018870F833701BC2CDC0159962D913C9168
:1040B0005A972115310509F015C118968D919C91DB
:1040C0001997681779070CF0D7C11A968D919C91B2
:1040D000481759070CF0D0C14C2C512CB6E0CB9EA0
:1040E000600D711D11247C876B87161617060CF066
:1040F000C3C1EA2DF0E0FA87E98793E0EE0FFF1FD6
:104100009A95E1F7F88BEF87CF01840F951F18166A
:1041100019060CF0B1C1A98DBA8D58968C918111F8
:1041200004C0BFEABD1508F4D394A98DBA8DED91F2
:10413000FC9111970284F385E02DCD011995B5E02E
:10414000DB9EC0011124E981FA81FC83EB83312CD1
:10415000212C9C012B523A4D388F2F8B4A2D50E049
:104160005E8B4D8BEF89F88DE20DF31D44919E829D
:104170008D82D12CC12C69817A81620D731D7A8B5D
:10418000698B842F90E09C8B8B8BE98DFA8DA081BD
:10419000B18140FF82C0F1E0BF126FC0AF126DC0AD
:1041A0001C96ED91FC912F813885A4014C0D5D1D6D
:1041B00069897A89898D9A8D1995EB89FC89F5959C
:1041C000E7954E2F5FEFC51AD50A6D817E818D89E7
:1041D0009E89680F791F7E836D8398E0C916D1048C
:1041E00081F6AFEF2A1A3A0AEB81FC81E40DF51D46
:1041F000FC83EB83F5E02F16310409F0B3CF2F8158
:10420000388526153705B9F0A98DBA8DED91FC9149
:10421000B1E0BB1257C0AB1255C069817A816B5FA8
:104220007F4F0088F189E02D830128E030E0A40170
:10423000898D9A8D1995A98DBA8DED91FC91119763
:104240000688F789E02DCD016A960FB6F894DEBF97
:104250000FBECDBFDF91CF911F910F91FF90EF90D7
:10426000DF90CF90BF90AF909F908F907F906F9096
:104270005F904F903F902F9019941E96ED91FC9176
:10428000EF80F88409851A8592014D815E816B81EA
:104290007C81898D9A8D199590CF2F81388526152F
:1042A000370509F48ACF31E0B31207C0A31205C065
:1042B0001C96ED91FC91930178CF1E96ED91FC91A7
:1042C0007301E0CF6B857C85641975090684F785D9
:1042D000E02D73010F8518899201A401898D9A8DB3
:1042E0001995A9CFF901349694913297459154913B
:1042F000D91AB7E0DB9E400D511D1124F90125911B
:1043000034913C8B2B8BFA0125903490FA01329634
:10431000749031963491398B3296649031964490F2
:1043200041E04C1518F04A1508F07FC0662D062CA8
:10433000000C770B7C836B83842D042C000C990B71
:104340009E838D83A98DBA8DED91FC911197028486
:10435000F385E02DCD011995512CD12CC12CEA2DDE
:10436000F0E0FA87E9872B2D30E03C872B87A4010A
:10437000440D511D47FC5A95588F4F8B69817A81A6
:10438000660D711D67FC7A957E876D877989C716E2
:1043900008F051CF2C2D30E04D815E81420F531F2C
:1043A000A985BA854A9FC0014B9F900D5A9F900DD9
:1043B0001124FC01E80DF91DF88BEF87852D612C88
:1043C0004F89588D420F531F5E8B4D8B671408F039
:1043D00050C044244394480E877041F4C1010196B3
:1043E000EB89FC89E20DF31DD4901C01D7FE19C0A6
:1043F000A98DBA8DED91FC91662D70E0B1E0BB12F4
:1044000019C0AB1217C02D853E85620F731F04843F
:10441000F585E02D2F8138854D895E89898D9A8DAE
:104420001995DD0C6394842DD1CF1E821D821C82D0
:104430001B8288CF4B815C81640F751FAB85BC8567
:104440006A9FC0016B9F900D7A9F900D1124698126
:104450007A81680F791F0684F785E02DEF80F88454
:1044600009851A859D014F855889898D9A8D1995E1
:10447000D8CF570CC3948ACF6A960FB6F894DEBF94
:104480000FBECDBFDF91CF911F910F91FF90EF90A5
:10449000DF90CF90BF90AF909F908F907F906F9064
:1044A0005F904F903F902F9008958F929F92AF9280
:1044B000CF92EF92FF920F931F93CF93DF93EC0174
:1044C000262F898D9A8D009709F051C06A30D1F45A
:1044D0001D861C868D8948E0849F900111248E855D
:1044E0009F85820F931F9F878E8781E090E0DF91E9
:1044F000CF911F910F91FF90EF90CF90AF909F9031
:104500008F9008956D3089F3CC88AD888F8988238A
:10451000C1F08C859D8536E0C39E800D911D1124D0
:10452000488559854817590764F44E855F851D866F
:104530001C8638E0A39EC0011124840F951F9F871D
:104540008E87EA88FB88088919894E855F856C8586
:104550007D85CE010E9430202C898C859D8546E08A
:10456000249F800D911D11249D878C87BECF6A30BA
:1045700069F41D861C86FC013696E4912D898E8592
:104580009F85E29F800D911D1124ADCF6D3009F400
:10459000ACCFFC0134963491631708F4A6CF319662
:1045A000E491E61708F4A1CFFC013296859094902F
:1045B000462F431B342F47E0349F800C911C11245D
:1045C000F401329634913196E4913323A9F1EE232C
:1045D00099F1CC88F4013596E491AD884F89442354
:1045E00001F10E2E000CFF0BE30FF11DCE9EA0017A
:1045F000CF9E500D11246C857D85460F571F688511
:104600007985641775076CF44E855F851D861C8659
:10461000FC013696E491AE9E400D511D11245F873A
:104620004E87EA88FB88088919894E855F856C85E5
:104630007D85CE010E943020F4013496E4912C89CE
:104640008C859D85E29F800D911D11248DCF6F92E9
:104650007F928F929F92AF92BF92CF92DF92EF9212
:10466000FF920F931F93CF93DF93EC016B015A01DD
:1046700039014801E881F9810284F385E02D19951B
:10468000E881F9810288F389E02D87019301A50172
:10469000B601CE011995A501480D591D415051098A
:1046A000E881F9810288F389E02D9301B601CE01FA
:1046B0001995E881F9810088F189E02D9401A5011F
:1046C000B601CE011995C60CD71CB601615071090F
:1046D000E881F9810088F189E02D9401A501CE01DE
:1046E0001995E881F9810688F789E02DCE01DF91DF
:1046F000CF911F910F91FF90EF90DF90CF90BF90DF
:10470000AF909F908F907F906F9019946F927F924F
:104710008F929F92AF92BF92CF92DF92EF92FF92D1
:104720000F931F93CF93DF935C01EB016A01490163
:1047300038018701DC01ED91FC916217730719F5CF
:10474000641675062CF0962D872D3A01C92ED82EA9
:104750009601261937092F5F3F4F048CF58DE02D08
:10476000A301BE01C5011995DF91CF911F910F9152
:10477000FF90EF90DF90CF90BF90AF909F908F9081
:104780007F906F9008954615570591F426173707C7
:1047900024F0892D4B01C22FD82F9E0128193909E9
:1047A0002F5F3F4F068CF78DE02DA601B401DACFC5
:1047B0000284F385E02D1995D501ED91FC910488D3
:1047C000F589E02D83019401A601BE01C50119956B
:1047D000D501ED91FC910688F789E02DC501DF91A7
:1047E000CF911F910F91FF90EF90DF90CF90BF90EE
:1047F000AF909F908F907F906F901994EF92FF925F
:104800000F931F93DC011A960D911C911B9718961C
:104810002D913C911997ED91FC9100A0F1A1E02D13
:104820007B0150E040E070E060E019951F910F912E
:10483000FF90EF9008954F925F926F927F928F92C8
:104840009F92AF92BF92CF92DF92EF92FF920F931F
:104850001F93CF93DF936C012B015A01390148015B
:10486000DC01ED91FC910284F385E02D1995E201C4
:10487000640C751CD601ED91FC91C615D7055CF44E
:104880000088F189E02D87019401A501BE01C601D0
:1048900019952196EFCF0688F789E02DC601DF91A3
:1048A000CF911F910F91FF90EF90DF90CF90BF902D
:1048B000AF909F908F907F906F905F904F901994E2
:1048C0008F929F92AF92BF92CF92DF92EF92FF9220
:1048D0000F931F93CF93DF93EC015B014A016901B2
:1048E000E881F9810284F385E02D199595012C0D5D
:1048F0003D1D21503109E881F9810488F589E02DB9
:1049000078018401A401B501CE011995E881F981EE
:104910000688F789E02DCE01DF91CF911F910F918D
:10492000FF90EF90DF90CF90BF90AF909F908F90CF
:1049300019948F929F92AF92BF92CF92DF92EF9293
:10494000FF920F931F93CF93DF93EC015B014A011A
:1049500069017801E881F9810284F385E02D1995D8
:10496000C80CD91C860101501109E881F98104881D
:10497000F589E02D9501A401B501CE011995E881D5
:10498000F9810688F789E02DCE01DF91CF911F9143
:104990000F91FF90EF90DF90CF90BF90AF909F90DE
:1049A0008F901994EF92FF920F931F93DC01ED917A
:1049B000FC9100A0F1A1E02D19951F910F91FF909E
:1049C000EF9008950F931F93DC01ED91FC91068CFD
:1049D000F78DE02D19951F910F9108950F931F9357
:1049E000DC01ED91FC91048CF58DE02D19951F9162
:1049F0000F910895DC01ED91FC910084F185E02D8B
:104A000019943F924F925F926F927F928F929F92F2
:104A1000AF92BF92CF92DF92EF92FF920F931F93CC
:104A2000CF93DF9300D000D0CDB7DEB74C012B0180
:104A30005A013901C80107969C0193E035952795E5
:104A40009A95E1F73C832B83CA018E0D9F1D9A83B3
:104A50008983F12CE12C312C1E821D828D819E8157
:104A600087709927330C892B61F4ED81FE8183E0F7
:104A7000F595E7958A95E1F7EE0DFF1DE60DF71D1B
:104A8000349037FE09C09601A5016D817E81640DC9
:104A9000751DC4010E94FA242D813E812F5F3F4F76
:104AA0003E832D8302171307C9F63FEFA31AB30AFB
:104AB0008B819C81E80EF91E29813A81A216B306EA
:104AC00059F626960FB6F894DEBF0FBECDBFDF9124
:104AD000CF911F910F91FF90EF90DF90CF90BF90FB
:104AE000AF909F908F907F906F905F904F903F908E
:104AF00008952F923F924F925F926F927F928F9282
:104B00009F92AF92BF92CF92DF92EF92FF920F935C
:104B10001F93CF93DF9300D000D0CDB7DEB73C0119
:104B20006A013E832D83FC82EB825801A41AB50AE8
:104B3000B7FE03C0B194A194B1088D809E80861AFF
:104B4000970A97FE03C09194819491088A149B045C
:104B50005CF0902F812F0D811E819D838E839C2D73
:104B60008D2D6B01692F782F0C151D055CF09D8133
:104B70008E817E836D83692F782F902F812F860100
:104B8000C92ED82E1601201A310A2B012D813E8103
:104B9000421A530A57FE03C05194419451087101BF
:104BA00037FE03C03FEFE31AF30AF594E7948D81D3
:104BB0009E81861797075CF5A1E0B0E0BA83A983D0
:104BC000C016D1064CF1D301ED91FC910484F5851A
:104BD000E02D2B813C81A8016D817E818A149B048C
:104BE0001CF04D815E81B801C3011995E418F508E8
:104BF000F7FE0AC02D813E8189819A81280F391FD5
:104C00003E832D83E20CF31C0F5F1F4FD9CF2FEF94
:104C10003FEF3A832983D4CF26960FB6F894DEBFB0
:104C20000FBECDBFDF91CF911F910F91FF90EF90FD
:104C3000DF90CF90BF90AF909F908F907F906F90BC
:104C40005F904F903F902F900895CF93CFB7F894F7
:104C50008091A304811127C0E3E6F4E38491E3E0AB
:104C6000F4E39491E82FF0E0EE0FFF1FEC5AFC4CB8
:104C7000A591B491EC91E92321F461E085E30E94D0
:104C8000D71A61E085E30E94051B8CB580618CBD5D
:104C90008CB580648CBD61E084E30E94051B61E0FB
:104CA00083E30E94051B8091A3048F5F8093A3047C
:104CB000CFBFCF91089520915904260F3327331F7A
:104CC00021323105ECF420917D04FC0190E080E07C
:104CD000243069F082E00895A09159042191AC013B
:104CE000475C5B4FA40FB52FB11D2C93019686171F
:104CF00098F380915904680F6093590480E00895F7
:104D000081E0089510927D0481E080937F041092E9
:104D10007E0461E084E10E94D71A61E085E10E948F
:104D2000D71AE9EBF0E080818E7F808380818D7FD0
:104D3000808388E48093B80085E48093BC00089564
:104D4000CF93DF9391E0909338048823B9F0C0911A
:104D5000B800D091BA008091BC008A7B8093BC00DF
:104D600060E084E10E94D71A60E085E10E94D71AD2
:104D70000E948226D093BA00C093B800DF91CF91F1
:104D80000895E091AD048091AC04E81730F4F0E0B0
:104D9000ED5EFB4F808190E008958FEF9FEF0895C7
:104DA0009091AD048091AC042FEF3FEF981748F439
:104DB000E92FF0E0ED5EFB4F208130E09F5F9093A4
:104DC000AD04C90108958091AC049091AD04891B94
:104DD000990B0895CF92DF92EF92FF920F931F935A
:104DE000CF93DF937C01CB018A012091A50422237C
:104DF00089F0EB016B01C40ED51ECC15DD0569F001
:104E00006991D701ED91FC910190F081E02DC701EE
:104E10001995F3CF642F0E945B26C801DF91CF91D3
:104E20001F910F91FF90EF90DF90CF900895CF9357
:104E3000DF931F92CDB7DEB769832091A5042223AB
:104E4000F9F02091AA04203258F021E030E0FC0172
:104E50003383228390E080E00F90DF91CF9108951B
:104E60008091AB04E82FF0E0ED50FC4F99819083E6
:104E70008F5F8093AB048093AA0481E090E0ECCF35
:104E800061E0CE0101960E945B26F7CFCF92DF92C0
:104E9000EF92FF920F931F93CF93DF93D091AA04C9
:104EA00081E0D13208F09CC0C091A4040E94411B53
:104EB0006B017C0180917D0481116CC082E0809344
:104EC0007D0481E080937F048FEF80937C041092B7
:104ED000A104D093A004A3EFB3E0E0E8F4E080E005
:104EE000D8138DC01092A2048091A204CC0FC82BBD
:104EF000C093A20480917E04813009F084C0109296
:104F00007E040E94411B6B017C018091A20480936E
:104F1000BB008091340490913504A0913604B09187
:104F20003704892B8A2B8B2BA1F00E94411B009107
:104F300034041091350420913604309137046C19F3
:104F40007D098E099F09061717072807390708F4F6
:104F500042C08091BC0083FDD8CF85EC8093BC001B
:104F60000E94411B6B017C0180917D04823009F419
:104F70004CC080917C048F3F09F469C080917C040F
:104F8000803209F466C080917C04803309F463C0E8
:104F900084E026C08091340490913504A0913604B9
:104FA000B0913704892B8A2B8B2B09F483CF0E9475
:104FB000411B009134041091350420913604309146
:104FC00037046C197D098E099F09061717072807F2
:104FD000390708F06FCF809133040E94A02685E046
:104FE0001092AB041092AA041092A504DF91CF9105
:104FF0001F910F91FF90EF90DF90CF9008959D91BA
:1050000091938F5F6DCF85EEA9CF809134049091FD
:105010003504A0913604B0913704892B8A2B8B2B51
:1050200009F4A2CF0E94411B009134041091350471
:1050300020913604309137046C197D098E099F093F
:10504000061717072807390708F08ECFC4CF80E06E
:10505000C7CF82E0C5CF83E0C3CFE2E7F0E0808135
:105060008D7F8083F89462E082E10E94051B62E0FC
:1050700083E10E94051B789408958091CE0490915D
:10508000CF04029724F01092CF041092CE048091A6
:105090000C0290910D02059724F010920D021092CF
:1050A0000C028091CE049091CF0497FF06C081E05E
:1050B00090E09093CF048093CE0480910C02909165
:1050C0000D0297FF06C084E090E090930D0280935C
:1050D0000C0280911602909117028230910571F1B5
:1050E0000097F9F4E091CE04F091CF04EE0FFF1F8A
:1050F000EE0FFF1FE95BFD4F80819181A281B3819B
:105100008093F2049093F304A093F404B093F50415
:105110006091F2047091F3048091F4049091F5048D
:1051200008950197A9F7E0910C02F0910D02EE0F9E
:10513000FF1FEE0FFF1FED58FD4FDECF80911202D3
:1051400090911302A0911402B0911502D9CF0E9440
:105150003D288091D2049091D304892B49F5609128
:10516000F2047091F3048091F4049091F5040E948C
:10517000AD569B01AC0168E27BE68EE69EE40E94A0
:10518000675820E030E040E05FE30E94EA560E946A
:105190001559623220F181E090E09093D30480931E
:1051A000D2040E94A72880931802809118020895C3
:1051B0006091F2047091F3048091F4049091F504ED
:1051C0000E94AD569B01AC0168E27BE68EE69EE450
:1051D0000E94675820E030E040E85EE3D6CF60935D
:1051E0001802E3CF0E943D28809116029091170289
:1051F0004091F2045091F3046091F4047091F5042D
:10520000029778F59A01AB01220F331F441F551FF7
:10521000A0911802B0E00E94E05760930E027093D4
:105220000F0280931002909311022091D2043091CA
:10523000D3042130310561F4660F771F881F991F51
:1052400060930E0270930F028093100290931102EC
:1052500060910E0270910F028091100290911102E4
:10526000089540930E0250930F02609310027093C2
:105270001102EECF0F931F93CF938091EB03811117
:105280000DC00E94981B6093E7037093E80380931E
:10529000E9039093EA0381E08093EB038091E404B7
:1052A00081110EC0109216061092150681E090E052
:1052B0009093180680931706CF911F910F91089530
:1052C0000E94981B0091E7031091E8032091E903E5
:1052D0003091EA03601B710B820B930B6E347140AB
:1052E0008105910588F0C09103020E94981B60938C
:1052F000E7037093E8038093E9039093EA0381E066
:10530000C11180E08093030280910302813051F645
:1053100081E090E09093180680931706909316060C
:1053200080931506C9CFCF92DF92EF92FF92CF9371
:10533000DF93EB01FA01DC0120E432E44FE050E0BE
:105340000E94E0576B017C019E01A8EEB3E00E9431
:10535000EB57C60ED71EE81EF91ECE0EDF1EE11C4F
:10536000F11C80EAC81A86E8D80A81E0E80AF10848
:1053700081E091E6C9169EEDD9069BECE9069DE118
:10538000F90608F080E0DF91CF91FF90EF90DF9079
:10539000CF9008954091D8045091D90428EE33E07D
:1053A000429FC001439F900D529F900D1124209168
:1053B000DA043091DB04820F931F009711F481E02F
:1053C00090E00895CF92DF92EF92FF92A091DC04DB
:1053D000B091DD0420E432E44FE050E00E948259B5
:1053E0006B017C01A091DE04B091DF0428EE33E074
:1053F0000E947B596C0D7D1D8E1D9F1DC090E00489
:10540000D090E1040D2C000CEE08FF086C0D7D1D02
:105410008E1D9F1DFF90EF90DF90CF9008952F92EB
:105420003F924F925F926F927F928F929F92AF9234
:10543000BF92CF92DF92EF92FF920F931F93CF9381
:10544000DF93CDB7DEB76A970FB6F894DEBF0FBE15
:10545000CDBF9A8F898F7A8369834A01D22E1E83AA
:105460000D833701BC2CDC0159962D913C915A9744
:105470002115310509F015C118968D919C91199748
:10548000681779070CF0F0C11A968D919C91481716
:1054900059070CF0E9C14C2C512CB6E0CB9E600DA5
:1054A000711D11247C876B87161617060CF0DCC162
:1054B000EA2DF0E0FC83EB8393E0EE0FFF1F9A955B
:1054C000E1F7F88BEF87CF01840F951F18161906A7
:1054D0000CF0CAC1A98DBA8D58968C91811104C067
:1054E000BFEABD1508F4D394A98DBA8DED91FC9156
:1054F00011970284F385E02DCD011995B5E0DB9E6F
:10550000C0011124E981FA81F887EF83312C212C25
:105510009C012C5A3F4D388F2F8B4A2D50E05E8BCB
:105520004D8BEF89F88DE20DF31D44919A868986A3
:10553000D12CC12C69817A81620D731D7A8B698BA4
:10554000842F90E09C8B8B8BE98DFA8DA081B181AB
:1055500040FF82C0F1E0BF126FC0AF126DC01C9659
:10556000ED91FC912D813E81A4014C0D5D1D698959
:105570007A89898D9A8D1995EB89FC89F595E7953E
:105580004E2F5FEFC51AD50A69857A858D899E8968
:10559000680F791F7A87698798E0C916D10481F668
:1055A000AFEF2A1A3A0AEF81F885E40DF51DF88766
:1055B000EF83F5E02F16310409F0B3CF2D813E8142
:1055C00062167306B9F0A98DBA8DED91FC91B1E028
:1055D000BB1257C0AB1255C069817A816B5F7F4F98
:1055E0000088F189E02D830128E030E0A401898D55
:1055F0009A8D1995A98DBA8DED91FC911197068818
:10560000F789E02DCD016A960FB6F894DEBF0FBE84
:10561000CDBFDF91CF911F910F91FF90EF90DF9061
:10562000CF90BF90AF909F908F907F906F905F9042
:105630004F903F902F9019941E96ED91FC91ED8024
:10564000FE800B811C81920149855A856F81788586
:10565000898D9A8D199590CF2D813E8162167306A2
:1056600009F48ACF31E0B31207C0A31205C01C961B
:10567000ED91FC91930178CF1E96ED91FC91730111
:10568000E0CF6B857C85641975090684F785E02D6C
:1056900073010F8518899201A401898D9A8D19953E
:1056A000A9CFF90134969491329745915491D91A22
:1056B000B7E0DB9E400D511D1124F9012591349175
:1056C0003C8B2B8BFA0125903490FA013296549042
:1056D00031963491398B329644903196D49041E092
:1056E0004C1518F04A1508F098C0642D042C000CD5
:1056F000770B78876F838D2D0D2C000C990B9A8773
:105700008987A98DBA8DED91FC9111970284F3855B
:10571000E02DCD011995ED81FE816E167F06A1F079
:10572000A98DBA8DED91FC9111970684F785E02D36
:1057300073010BE010E029E030E0A4014D50510965
:1057400069817A81CD011995612CC12C712CEA2DCA
:10575000F0E0FC83EB832B2D30E03C872B87A4010A
:105760004D0D511DD7FC5A95588F4F8B69817A8109
:10577000640D711D47FC7A957E876D877989771650
:1057800008F038CF272D30E049855A85420F531F46
:10579000AB81BC814A9FC0014B9F900D5A9F900DD9
:1057A0001124FC01E80DF91DF88BEF87862DD12C13
:1057B0004F89588D420F531F5E8B4D8BD51408F0C7
:1057C00050C044244394480E877041F4C1010196AF
:1057D000EB89FC89E20DF31DC4901C01C7FE19C0C2
:1057E000A98DBA8DED91FC916D2D70E0B1E0BB12E9
:1057F00019C0AB1217C02D853E85620F731F04843C
:10580000F585E02D2D813E814D895E89898D9A8DAA
:105810001995CC0CD394842DD1CF1A86198618866D
:105820001F826FCF4F815885640F751FAB85BC8574
:105830006A9FC0016B9F900D7A9F900D1124698122
:105840007A81680F791F0684F785E02DED80FE8050
:105850000B811C819D014F855889898D9A8D1995E1
:10586000D8CF650C73948ACF6A960FB6F894DEBFD2
:105870000FBECDBFDF91CF911F910F91FF90EF90A1
:10588000DF90CF90BF90AF909F908F907F906F9060
:105890005F904F903F902F9008958F929F92AF927C
:1058A000CF92EF92FF920F931F93CF93DF93EC0170
:1058B000262F898D9A8D009709F051C06A30D1F456
:1058C0001D861C868D8948E0849F900111248E8559
:1058D0009F85820F931F9F878E8781E090E0DF91E5
:1058E000CF911F910F91FF90EF90CF90AF909F902D
:1058F0008F9008956D3089F3CC88AD888F89882387
:10590000C1F08C859D8536E0C39E800D911D1124CC
:10591000488559854817590764F44E855F851D866B
:105920001C8638E0A39EC0011124840F951F9F8719
:105930008E87EA88FB88088919894E855F856C8582
:105940007D85CE010E940F2A2C898C859D8546E09D
:10595000249F800D911D11249D878C87BECF6A30B6
:1059600069F41D861C86FC013696E4912D898E858E
:105970009F85E29F800D911D1124ADCF6D3009F4FC
:10598000ACCFFC0134963491631708F4A6CF31965E
:10599000E491E61708F4A1CFFC013296859094902B
:1059A000462F431B342F47E0349F800C911C112459
:1059B000F401329634913196E4913323A9F1EE2328
:1059C00099F1CC88F4013596E491AD884F89442350
:1059D00001F10E2E000CFF0BE30FF11DCE9EA00176
:1059E000CF9E500D11246C857D85460F571F68850D
:1059F0007985641775076CF44E855F851D861C8656
:105A0000FC013696E491AE9E400D511D11245F8736
:105A10004E87EA88FB88088919894E855F856C85E1
:105A20007D85CE010E940F2AF4013496E4912C89E1
:105A30008C859D85E29F800D911D11248DCF089549
:105A400090E080E0089561E086E00E94D71A60E06F
:105A500086E00C94D71A0CB405FC0DC09EBD000066
:105A60000DB407FEFDCF9EB58EBD00000DB407FE40
:105A7000FDCF8EB508958EBD00000DB407FEFDCF9D
:105A80008EB59EBD00000DB407FEFDCF9EB50895F6
:105A9000CF93DF93EC0160E085E00E94D71A8091FC
:105AA000DE039091DF030E942B2D8C819D810E944B
:105AB0002B2D8A819B810E942B2D888199810E94A8
:105AC0002B2D61E085E00E94D71ADF91CF910C94D5
:105AD000232D8EBD00000DB407FEFDCF8EB50895B9
